:100000000C9434000C9446000C9446000C9446006A
:100010000C9446000C9446000C9446000C94460048
:100020000C9446000C9446000C9446000C9400027C
:100030000C9446000C9446000C9446000C94460028
:100040000C9446000C9446000C9446000C94460018
:100050000C9446000C9446000C9446000C94460008
:100060000C9446000C94460011241FBECFEFD8E03C
:10007000DEBFCDBF21E0A0E0B1E001C01D92A630FF
:10008000B207E1F70E948D010C949A020C940000D3
:100090000F931F93CF93DF93082FD62F172FC42FC3
:1000A0000E944802802F0E945102812F0E9451021B
:1000B0008D2F0E9451028C2F0E9451020E943E02FD
:1000C0008FE39CE90197F1F700C0000081E0DF9128
:1000D000CF911F910F9108951F93CF93DF93C82F56
:1000E000D62F172F0E9448028C2F0E945102812F79
:1000F0000E9451028D2F0E9451020E9448028C2FB3
:1001000081600E94510280E00E945C02C82F0E9420
:100110003E028C2FDF91CF911F910895219A209854
:10012000289A0895299A2FEF82E597E02150804080
:100130009040E1F700C0000029982FEF82E597E09A
:10014000215080409040E1F700C000000895EFE6A4
:10015000F0E08081887F80838DE080938100109221
:1001600080008BE196E090938900809388008081E5
:10017000826080830895CF9384E190E0909305019D
:10018000809304010E9492000E9492000E949200BB
:10019000299AC4E060910401709105014FEF86EA4D
:1001A00090E00E9448008091040190910501019621
:1001B0009093050180930401609104017091050101
:1001C00040E086EA90E00E9448008091040190910E
:1001D000050101969093050180930401C150D1F669
:1001E0002FEF83ED90E3215080409040E1F700C075
:1001F000000029980E9492000E9492000E949200A2
:100200000E9492000E94920084E190E09093050188
:100210008093040188E080930101CF91089580913B
:100220000101883008F1609104017091050186EAAE
:1002300090E00E946C0080930201809104019091F3
:1002400005010196909305018093040180910401BA
:10025000909105014B9730F084E190E09093050177
:10026000809304011092010180910201209101010B
:1002700090E002C0959587952A95E2F780FD02C02F
:10028000299801C0299A809101018F5F8093010113
:10029000089580910101811102C010920201189904
:1002A00012C0809101014091020121E030E0B901CA
:1002B00002C0660F771F8A95E2F7CB01842B8093EB
:1002C0000201299A01C02998809101018F5F8093D2
:1002D0000101809101018830F8F0409102016091A4
:1002E00004017091050186EA90E00E944800809127
:1002F00004019091050101969093050180930401FA
:1003000080910401909105014B9720F083E0809348
:10031000000108951092010108950E948E00299A0B
:100320002FEF8BE792E9215080409040E1F700C029
:10033000000029980E94A70084E60E940F021092F4
:10034000000184E190E0909305018093040188E02E
:1003500080930101189B0E94BB007894CFE6D0E007
:1003600004E110E06894FF24F1F8EE24E394809116
:1003700003018130E1F71092030180910001813087
:1003800071F028F0823001F1833009F1F0CF189933
:1003900003C0E092000103C00E940F01E8CF8881F2
:1003A0008D7F88830E9492000E9492000E9492009A
:1003B0008881826088831093050100930401109264
:1003C0000101F0920001D3CF0E944901D0CF888172
:1003D0008D7F88830E9492000E9492000E9492006A
:1003E0000E9492000E94920088818260888310930C
:1003F0000501009304011092010110920001B7CF92
:100400001F920F920FB60F9211248F9381E0809369
:1004100003018F910F900FBE0F901F901895CF93EF
:10042000DF9300D0CDB7DEB728EE33E0482F429FF0
:10043000C001439F900D11249A83898329813A81B9
:10044000220F331F220F331F220F331F40E050E0D3
:1004500060E074E284EF90E00E9478022250E9EBC1
:10046000F0E080818C7F8083808181608083209315
:10047000B8000F900F90DF91CF91089584E9809399
:10048000BC000895ECEBF0E080818823ECF7089540
:1004900084EA8093BC000E9442028091B900887F68
:1004A00008958093BB0084E88093BC000E944202C0
:1004B0008091B900887F0895CF93813019F0C8E505
:1004C00080E002C0C0E580E484688093BC000E94A4
:1004D00042022091B900287F30E08C2F90E028174D
:1004E000390719F48091BB0001C080E0CF910895D5
:1004F000A1E21A2EAA1BBB1BFD010DC0AA1FBB1F28
:10050000EE1FFF1FA217B307E407F50720F0A21B99
:10051000B30BE40BF50B661F771F881F991F1A9406
:1005200069F760957095809590959B01AC01BD0130
:08053000CF010895F894FFCFFC
:00000001FF
