:100000000C9434000C9446000C9446000C9446006A
:100010000C9446000C9446000C9446000C94460048
:100020000C9446000C9446000C9446000C940F026D
:100030000C9446000C9446000C9446000C94460028
:100040000C9446000C9446000C9446000C94460018
:100050000C9446000C9446000C9446000C94460008
:100060000C9446000C94460011241FBECFEFD8E03C
:10007000DEBFCDBF21E0A0E0B1E001C01D92A630FF
:10008000B207E1F70E949A010C94A7020C940000B9
:100090001F93CF93DF9300D01F92CDB7DEB7182FF9
:1000A0004B836A8379830E945502812F0E945E02EE
:1000B0007981872F0E945E026A81862F0E945E02EC
:1000C0004B81842F0E945E020E944C028FE39CE9C8
:1000D0000197F1F700C0000081E00F900F900F90A2
:1000E000DF91CF911F9108951F93CF93DF9300D09D
:1000F000CDB7DEB7182F6A8379830E945502812F0E
:100100000E945E027981872F0E945E026A81862F9B
:100110000E945E020E945502812F81600E945E0251
:1001200080E00E94690289830E944C0289810F90BD
:100130000F90DF91CF911F910895219A2098289ACE
:100140000895299A2FEF82E597E021508040904052
:10015000E1F700C0000029982FEF82E597E02150D9
:1001600080409040E1F700C000000895EFE6F0E025
:100170008081887F80838DE0809381001092800051
:100180008BE196E090938900809388008081826063
:1001900080830895CF9384E190E09093050180934C
:1001A00004010E94A1000E94A1000E94A100299ABE
:1001B000C4E060910401709105014FEF86EA90E080
:1001C0000E9448008091040190910501019690934E
:1001D000050180930401609104017091050140E0E4
:1001E00086EA90E00E944800809104019091050108
:1001F00001969093050180930401C150D1F62FEF31
:1002000083ED90E3215080409040E1F700C0000072
:1002100029980E94A1000E94A1000E94A1000E94B2
:10022000A1000E94A10084E190E0909305018093D9
:10023000040188E080930101CF910895809101012C
:10024000883008F1609104017091050186EA90E020
:100250000E94740080930201809104019091050135
:10026000019690930501809304018091040190917F
:1002700005014B9730F084E190E090930501809365
:10028000040110920101809102012091010190E08E
:1002900002C0959587952A95E2F780FD02C02998BE
:1002A00001C0299A809101018F5F80930101089517
:1002B00080910101811102C010920201189910C0B1
:1002C000209102013091010181E090E0032E01C0F4
:1002D000880F0A94EAF7282B20930201299A01C07B
:1002E0002998809101018F5F809301018091010124
:1002F0008830F8F04091020160910401709105018D
:1003000086EA90E00E9448008091040190910501E6
:1003100001969093050180930401809104019091CE
:1003200005014B9720F083E080930001089510921F
:10033000010108950E949D00299A2FEF8BE792E911
:10034000215080409040E1F700C0000029980E94B1
:10035000B60084E60E941E021092000184E190E043
:10036000909305018093040188E080930101189B1C
:100370000E94CA007894C4E1D0E012E09091030199
:100380009130E1F71092030180910001813059F121
:1003900010F1823009F440C0833081F780916F0002
:1003A0008D7F80936F000E94A1000E94A1000E9497
:1003B000A1000E94A1000E94A10080916F008260B4
:1003C00080936F00D0930501C09304011092010146
:1003D00010920001D3CF189903C09093000103C07D
:1003E0000E941E01CBCF80916F008D7F80936F00A4
:1003F0000E94A1000E94A1000E94A10080916F00B4
:10040000826080936F00D0930501C0930401109225
:10041000010110930001B2CF0E945801AFCF1F928B
:100420000F920FB60F9211248F9381E080930301F6
:100430008F910F900FBE0F901F901895CF93DF9361
:1004400000D0CDB7DEB728EE33E0482F429FC00181
:10045000439F900D11249A83898329813A8183E0F7
:10046000220F331F8A95E1F740E050E060E074E22C
:1004700084EF90E00E9485022250E9EBF0E0808159
:100480008C7F80838081816080832093B8000F906F
:100490000F90DF91CF91089584E98093BC00089577
:1004A0008091BC0087FFFCCF089584EA8093BC0054
:1004B0000E9450028091B900887F08958093BB000C
:1004C00084E88093BC000E9450028091B900887F2C
:1004D0000895CF93813019F0C8E580E002C0C0E5EF
:1004E00080E484688093BC000E9450022091B9008F
:1004F000287F30E08C2F90E02817390719F480917D
:10050000BB0001C080E0CF910895A1E21A2EAA1B82
:10051000BB1BFD010DC0AA1FBB1FEE1FFF1FA217B3
:10052000B307E407F50720F0A21BB30BE40BF50BB0
:10053000661F771F881F991F1A9469F76095709539
:10054000809590959B01AC01BD01CF010895F89471
:02055000FFCFDB
:00000001FF
