:100000000C9434000C9451000C9451000C94510049
:100010000C9451000C9451000C9451000C9451001C
:100020000C9451000C9451000C9451000C9451000C
:100030000C9451000C9451000C9451000C945100FC
:100040000C9451000C9451000C9451000C945100EC
:100050000C9451000C9451000C9451000C945100DC
:100060000C9451000C94510011241FBECFEFD8E026
:10007000DEBFCDBF11E0A0E0B1E0E8E5F9E002C0ED
:1000800005900D92A43CB107D9F721E0A4ECB1E0B2
:1000900001C01D92AE3CB207E1F70E94E1020C9450
:1000A000AA040C940000CF93DF9300D0CDB7DEB745
:1000B00028EE33E0482F429FC001439F900D11244A
:1000C0009A83898329813A81220F331F220F331F9C
:1000D000220F331F40E050E060E074E284EF90E0D4
:1000E0000E9479042250E9EBF0E080818C7F8083CC
:1000F0008081816080832093B8000F900F90DF9102
:10010000CF91089584E98093BC000895ECEBF0E072
:1001100080818823ECF7089584EA8093BC000E94D4
:1001200086008091B900887F883011F08091B900F5
:100130008091B900887F08958093BB0084E8809304
:10014000BC000E9486008091B900887F0895CF93FB
:10015000813019F0C8E580E002C0C0E580E4846821
:100160008093BC000E9486002091B900287F30E077
:100170008C2F90E02817390789F082E091E00E94E7
:10018000EE038091B900887F60E090E00E94FD035B
:1001900086EA91E00E94EE0380E002C08091BB00FD
:1001A000CF9108951F93CF93DF93182FD62FC42F8D
:1001B0000E948C00812F0E949C008D2F0E949C0029
:1001C0008C2F0E949C000E9482008FE39CE9019783
:1001D000F1F700C0000081E0DF91CF911F910895F9
:1001E000CF93DF93C82FD62F0E948C008C2F0E94B4
:1001F0009C008D2F0E949C000E948C008C2F81609F
:100200000E949C0080E00E94A700C82F0E948200EC
:100210008C2FDF91CF9108951F93CF93DF93D82F29
:10022000142F409301016093000163E00E94F000ED
:10023000C82F8870181751F0111102C0C77F01C074
:10024000C8604C2F63E08D2F0E94D200C5FD0AC00C
:1002500040E067E08D2F0E94D2004AE860E08D2FD9
:100260000E94D2008FE39CE90197F1F700C00000E3
:1002700063E08D2F0E94F00085FB882780F9DF91D5
:10028000CF911F9108959DEC899F912D11249695F2
:1002900096959695292F220F322F330F330F230F68
:1002A000821B20E1929F800D112408958F92AF92BE
:1002B000BF92CF92DF92EF92FF920F931F93CF9353
:1002C000DF93CDB7DEB7F82E8B01B42ED22E40E0EF
:1002D00060E00E94D2000E948C008F2D0E949C0042
:1002E00086E00E949C000436110578F0980136954E
:1002F000279536952795ABE7B4E10E949B04969528
:10030000879524E6829F00191124802F0E944301C3
:100310000E949C000E948C008F2D0E949C0085E012
:100320000E949C008B2D0E9443010E949C000E9411
:100330008C008F2D0E949C0084E00E949C008D2DDB
:100340000E9443010E949C000E948C008F2D0E94FD
:100350009C0082E00E949C0080910001882331F083
:100360008E2D0E9443010E949C0010C08CE08E15CF
:1003700010F404EF0E0D802F0E94430190E2C99EFD
:10038000900111242064822B0E949C000E948C000A
:100390008F2D0E949C0081E00E949C008A2D0E946B
:1003A00043010E949C000E948C008F2D0E949C00A3
:1003B00080E00E949C00882D0E94430180680E947A
:1003C0009C00182F0E9482002FEF81EE94E02150B4
:1003D00080409040E1F700C00000812FDF91CF9175
:1003E0001F910F91FF90EF90DF90CF90BF90AF9053
:1003F0008F900895982F92959F70990F292F220F13
:10040000220F920F8F70890F08952F923F924F9273
:100410005F926F927F928F929F92AF92BF92CF9294
:10042000DF92EF92FF920F931F93CF93DF93CDB79D
:10043000DEB7182F3B012A0119010E948C00812F81
:100440000E949C0086E00E949C000E948C00012F6C
:100450000160802F0E949C0080E00E94A7000E9403
:10046000FA0190E0F301918380830E948C00812F38
:100470000E949C0085E00E949C000E948C00802FBE
:100480000E949C0080E00E94A7008F710E94FA01E8
:10049000F20180830E948C00812F0E949C0084E0E6
:1004A0000E949C000E948C00802F0E949C0080E093
:1004B0000E94A7000E94FA01F10180830E948C0033
:1004C000812F0E949C0082E00E949C000E948C0070
:1004D000802F0E949C0080E00E94A700782E86FF5B
:1004E00023C08FE191E00E94EE03F72DFF716F2E84
:1004F00060E08F2F90E00E94FD0383E391E00E9473
:10050000EE03862D0E94FA01682E60E090E00E94C2
:10051000FD0386EA91E00E94EE03872D8570F601C7
:100520008083F701608207C0F60110828F730E94FA
:10053000FA01F70180830E948C00812F0E949C00A9
:1005400081E00E949C000E948C00802F0E949C00F1
:1005500080E00E94A7000E94FA01F50180830E94BA
:100560008C00812F0E949C0080E00E949C000E94D1
:100570008C00802F0E949C00182F80E00E94A70012
:100580008F770E94FA01F40180830E9482008FE33A
:100590009CE90197F1F700C00000812FDF91CF9116
:1005A0001F910F91FF90EF90DF90CF90BF90AF9091
:1005B0009F908F907F906F905F904F903F902F9083
:1005C000089580E895E20E94C3038AE491E00E94C6
:1005D000EE0388EC0E94530041E061E08EED0E9442
:1005E0000C01882329F084E591E00E94EE0304C009
:1005F0008CE691E00E94EE030F2EFCEC8F2EF1E0D2
:100600009F2EF02D0F2EFBECAF2EF1E0BF2EF02D24
:100610000F2EF4ECCF2EF1E0DF2EF02D0F2EFAECA2
:10062000EF2EF1E0FF2EF02D08EC11E029EC31E087
:1006300047EC51E065EC71E08EED0E94050280937D
:10064000CD018091C5019091C601019701F580917E
:10065000C7018130E1F48091C9018130C1F40F2ECE
:10066000FFE08F2EF02D0F2EFBE3AF2EF02DCC24CC
:10067000C3940F2EF7E1EF2EF02D05E02FE14CE0B3
:100680006FE070E08EED0E9456018093CD0163E033
:100690008EED0E94F0008093CD0185FD04C08EE8B0
:1006A00091E00E94EE032FEF83E294EF215080400F
:1006B0009040E1F700C000000F2EFCEC8F2EF1E01F
:1006C0009F2EF02D0F2EFBECAF2EF1E0BF2EF02D64
:1006D0000F2EF4ECCF2EF1E0DF2EF02D0F2EFAECE2
:1006E000EF2EF1E0FF2EF02D08EC11E029EC31E0C7
:1006F00047EC51E065EC71E08EED0E9405028093BD
:10070000CD0189EA91E00E94EE038091C90162E087
:1007100090E00E94FD0387EB91E00E94EE03809140
:10072000C70162E090E00E94FD0389EB91E00E9426
:10073000EE0362E08091C5019091C6010E94FD0325
:100740008DEB91E00E94EE038091CA0162E090E09F
:100750000E94FD0381EC91E00E94EE038091CB01A9
:1007600062E090E00E94FD0381EC91E00E94EE03C4
:100770008091CC0162E090E00E94FD0386EA91E066
:100780000E94EE0390CF9C0140E050E060E472E4F0
:100790008FE090E00E947904215031093093C50028
:1007A0002093C400E2ECF0E08081877F8083808129
:1007B0008660808380818F7C808380818F7380833B
:1007C000E1ECF0E08081886180830895E0ECF0E066
:1007D000908195FFFDCF8093C6000895CF93DF935E
:1007E000EC018881882331F021960E94E6038991EB
:1007F0008111FBCFDF91CF9108950F931F93CF937A
:10080000DF9300D000D000D0CDB7DEB7FC01062FBB
:1008100019821A821B821C821E821D8244E010E013
:1008200020E137E2CF01B9010E946504611104C0E3
:10083000111102C0401748F4A1E0B0E0AC0FBD1F99
:10084000A10FB11D605D6C931F5FCF01B9010E94C4
:100850006504FC01ADECBCEC0E949B049C01369548
:10086000279536952795369527954150D9F641E03D
:1008700050E04C0F5D1F410F511D9F010E949B04D2
:100880009695879596958795969587959C01220FC5
:10089000331F880F991F880F991F880F991F820F88
:1008A000931FE81BF90BE05DDA01EC93CE01019692
:1008B0000E94EE0326960FB6F894DEBF0FBECDBFA2
:1008C000DF91CF911F910F910895AA1BBB1B51E19E
:1008D00007C0AA1FBB1FA617B70710F0A61BB70BB0
:1008E000881F991F5A95A9F780959095BC01CD0155
:1008F0000895A1E21A2EAA1BBB1BFD010DC0AA1F61
:10090000BB1FEE1FFF1FA217B307E407F50720F078
:10091000A21BB30BE40BF50B661F771F881F991FF3
:100920001A9469F760957095809590959B01AC013C
:10093000BD01CF010895A29FB001B39FC001A39F45
:10094000700D811D1124911DB29F700D811D112408
:08095000911D0895F894FFCFFA
:1009580001014932435F72656164204552524F522A
:100968003A2054575F535441545553203D20000DAD
:100978000A313220486F7572204D61736B656420AF
:100988003D20000D0A313220486F757220436F6E8A
:10099800766572746564203D200057656C636F6DE1
:1009A800650D0A004F7363696C6C61746F7220691E
:1009B800732052756E6E696E670D0A004552524F6C
:1009C800523A204F7363696C6C61746F722064696A
:1009D80064204E4F542073746172740D0A004F7373
:1009E80063696C6C61746F72204E4F542052756E3F
:1009F8006E696E670D0A0D0A000D0A54696D65630C
:100A08006865636B3A20002F002F323000202020C9
:040A1800003A0000A0
:00000001FF
